:020000040800F2
:1000000000500020451C000861030008610300083F
:100010003D1C00083D1C00083D1C000800000000BD
:10002000000000000000000000000000411C00086B
:10003000411C000800000000411C0008411C000891
:100040003D1C00083D1C00083D1C00083D1C00082C
:100050003D1C00083D1C00083D1C00083D1C00081C
:100060003D1C00083D1C00083D1C00083D1C00080C
:100070003D1C00083D1C00083D1C00083D1C0008FC
:100080003D1C00083D1C00083D1C0008310700080D
:10009000310700083D1C00083D1C00083D1C0008FD
:1000A0003D1C00083D1C00083D1C00083D1C0008CC
:1000B0003D1C00083D1C00083D1C00083D1C0008BC
:1000C0003D1C00083D1C00083D1C00083D1C0008AC
:1000D0003D1C00083D1C00083D1C00083D1C00089C
:1000E0003D1C00083D1C0008310700083D1C0008AD
:1000F0003D1C00083D1C00083D1C00083D1C00087C
:100100003D1C00083D1C00083D1C00083D1C00086B
:100110003D1C00083D1C00083D1C00083D1C00085B
:100120003D1C00083D1C00083D1C00083D1C00084B
:100130003D1C00083D1C00083D1C00083D1C00083B
:100140003D1C00083D1C00083D1C00083D1C00082B
:1001500038B504460121584800F012FF142C27D866
:10016000DFE804F02C353F52717B26262626262612
:10017000262626268226970B890000F0E5F94F4DAA
:100180004F4C286000F0E0F9102120604A4800F050
:10019000F9FE2868002840F08C80062000F072F9F3
:1001A000206808B100F046FC4348102100F0E8FE4A
:1001B000BDE838404048012100F0E4BE062000F0D0
:1001C00061F9BDE838403C48012100F0DBBE062063
:1001D00000F058F9012000F055F9002000F052F924
:1001E000E6E7062000F04EF9364C374800F05CF99F
:1001F00000232370002000F045F923780133DBB29F
:100200001B2B2370F6D9D3E70620304C00F03AF9C7
:100210002F4D00232370732000F034F9237801332D
:10022000DBB2E85C23700028F6D1264C0F2B23703C
:10023000BED8002000F026F923780133DBB20F2B63
:100240002370F6D9B4E7062000F01CF9FF2000F077
:1002500019F9FF2000F016F9AAE7062000F012F9BC
:10026000082000F00FF9A3E7152000F00BF9062095
:1002700000F008F99CE700F0CBF9164C206078B14B
:10028000062000F0FFF8206800F042FB00F00CF9B7
:100290008EE700F033F940F00800C0B208288DD096
:1002A000152000F0EFF8BDE838400348012100F0C8
:1002B00069BE00F015FC70E7000801402000002036
:1002C000180000201C0000203F001D002800002016
:1002D000782400082400002008B540F2023000F025
:1002E000D3FE002201231A48022100F0EFFC012175
:1002F000174800F045FE00F033FD40F2033000F0F7
:10030000C3FE4FF4407000F0BFFE4FF080604FF42A
:10031000407100F019FD082300220E48022100F070
:10032000D5FC0C48082100F02BFE00F06BF80A48C1
:1003300000F0EEFA094B00BF013BFCD1044801215B
:1003400000F020FE00F0DAF8FFF702FFFAE700BF46
:1003500000080140000C01400051250280969800E1
:1003600008B50C4802210022012300F0AFFC012156
:10037000084800F005FE084900BF0139FCD1012200
:100380001346044800F0A2FC034B00BF013BFCD124
:10039000E7E700BF00080140404B4C0048782028A8
:1003A00005D0A0F12200B0FA80F04009704718880B
:1003B000062894BF00200120704700BF30B50446D6
:1003C00083B00025009501210222402300F0D6FED3
:1003D0002046009582210222402300F0CFFE2046D5
:1003E000009583210322102300F0C8FE2046044B11
:1003F00021217F2203B0BDE8304000F0BBBF00BF29
:100400009D03000800B50F4885B0192100F0AEFB30
:100410000D49032280230191009202930B4A0C495B
:100420000C4B0D4800F05AFE0C4B0D49186001F0C2
:1004300061FB142001F064FC2A2005B05DF804EB98
:1004400001F05EBCF800002030000020E424000829
:100450008824000800000020E02500082C0000206F
:10046000BD03000870B50646054D8CB22868822190
:100470003246234600F08AFE0028F7D070BD00BF48
:100480002C00002030B583B002AC064D04F8010DFD
:10049000286882212246012300F078FE0028F7D048
:1004A00003B030BD2C00002030B583B002AC064D47
:1004B00044F8040D286882212246042300F066FED9
:1004C0000028F7D003B030BD2C00002010B5074C39
:1004D00020680121064A402300F060FE0028F7D082
:1004E0000449054A00240C70107010BD2C00002037
:1004F000B4000020F4000020B000002070B50E4DC4
:100500000E4E2B7832789A4205D95A1CD2B20C4939
:100510002A70C85C70BD0B4C20680121084A40233A
:1005200000F03CFE0028F7D001220549307000237E
:100530002A70C85C70BD00BFF4000020B00000202D
:10054000B40000202C0000202DE9F8432C4D2D4F45
:100550002A78387882421DD2531CDBB2DFF8AC8097
:1005600083422B7018F8026028D21A460133DBB29E
:1005700018F8029083422B704FEA092932D25A1C94
:10058000D2B218F8030049EA06062A7046EA00408B
:10059000BDE8F8831C4C206801211C4A402300F070
:1005A000FDFD0028F7D0C0B20123DFF860800022F3
:1005B000834238702B7018F80260D6D3124C206832
:1005C0000121124A402300F0E9FD0028F7D0002263
:1005D000C0B2012318F80290834238702B704FEAA2
:1005E0000929CCD3084C20680121084A402300F097
:1005F000D5FD0028F7D0387001220023C1E700BFE5
:10060000F4000020B00000202C000020B4000020E6
:100610002DE9F843384D394E2A783078824224D279
:10062000531CDBB2364F83422B7017F802802FD257
:100630001A460133DBB217F8029083422B704FEA5F
:10064000092939D21A460133DBB2BA5C49EA0808F3
:10065000834248EA02482B703CD25A1CD2B2F85C62
:100660002A7048EA0060BDE8F883264C2068012122
:10067000234A402300F092FD0028F7D0C0B20123A6
:100680001F4F0022834230702B7017F80280CFD3A7
:100690001C4C206801211A4A402300F07FFD0028ED
:1006A000F7D00022C0B2012317F8029083423070C5
:1006B0002B704FEA0929C5D3124C20680121104A3A
:1006C000402300F06BFD0028F7D0C0B2307001234A
:1006D0000022BAE70B4C20680121094A402300F0B0
:1006E0005DFD0028F7D0002330700122F85C2A70ED
:1006F00048EA0060BDE8F883F4000020B000002064
:10070000B40000202C00002030B4064A06491378BB
:100710000978064DCC1A11702B440360E0B230BC4E
:10072000704700BFF4000020B0000020B40000209B
:10073000014B186800F01EBD2C00002070B5054666
:10074000344C354E2046022100F074FB2046032134
:1007500000F070FB20463246022100F0F5FB2046F7
:1007600002212E4A00F0FAFB2A462046022100F020
:10077000FFFB2046022100F0BFFB2046022100F0D3
:10078000A7FB20460221002200F094FB2046022114
:10079000002200F081FB204602214FF4405200F07D
:1007A0006DFB20463246032100F0CEFB204603219C
:1007B0001B4A00F0D3FB2A462046032100F0D8FB59
:1007C0002046032100F0A2FB2046032100F08AFB13
:1007D00020460321002200F06DFB20460321002269
:1007E00000F05AFB4FF400522046032100F046FB74
:1007F0000C4D2046022100F093FB2046032100F01F
:100800008FFB284600F01CFC2846BDE8704000F035
:100810000BBC00BF000002400C300140180100205A
:100820001401002000300140F8B50F460546344C55
:10083000344E2046022100F0FDFA2046032100F04C
:10084000F9FA20463246032100F07EFB20463A4664
:10085000032100F083FB2A462046032100F088FB99
:100860002046032100F052FB2046032100F030FB1C
:1008700020460321002200F01DFB20460321002218
:1008800000F00AFB204603214FF4005200F0F6FA74
:1008900020463246022100F057FB204602211A4A28
:1008A00000F05CFB2A462046022100F061FB204656
:1008B000022100F021FB2046022100F013FB20461C
:1008C0000221002200F0F6FA20460221002200F068
:1008D000E3FA4FF440522046022100F0CFFA0B4DCC
:1008E0002046022100F01CFB2046032100F018FBEB
:1008F000284600F0A5FB2846BDE8F84000F094BB70
:10090000000002400C30014058010020003001403E
:1009100030B5044683B04FF4437000F0B5FB4FF49C
:10092000207000F0B1FB344B9C4253D9334B9C42B6
:1009300053D903F5891303F688239C4259D9304BC8
:100940009C4253D92F4B9C424DD92F4B9C4247D9A7
:100950002E492F4A8C4203F1010395BF1C461446D1
:10096000082500252B4803210222A02300F0AEF920
:10097000284800210222402300F0A8F90321002288
:100980001023244800F0A2F9234800F0FFFA0022C7
:1009900029460092019213461F4800F05DFB1E4855
:1009A00000F020FB1C4800F027FB1B4800F00EFB6A
:1009B000194800F033FB184800F02AFB164800F0F5
:1009C00021FB154800F008FB134800F0F9FA204617
:1009D00003B030BD114C3825C4E7114C3025C1E7B8
:1009E000104C1025BEE7104C1825BBE70F4C2025F6
:1009F000B8E70F4C2825B5E743950800872A110072
:100A00001FAA44003F5489007FA81201FF5025020D
:100A1000005125020008014000300140A24A0400B4
:100A2000449508004054890020AA44001055220033
:100A3000882A11003F2838B5054626D904464020AB
:100A4000FFF77CFE403C02210A46224800F00CFAE7
:100A50000028F8D002210A461E4800F0FFF91E487F
:100A600000F0F4FA1C4800F0E5FA1A48022100F000
:100A700061FA1848032100F05DFA18484021FFF799
:100A8000F1FC3F2CDBD805F03F0505B938BDA8B215
:100A9000FFF754FE02210A460E4800F0E5F900284F
:100AA000F8D002210A460B4800F0D8F90A4800F0B5
:100AB000CDFA094800F0BEFA0648022100F03AFAE1
:100AC0000448032100F036FA2946BDE838400348BF
:100AD000FFF7C8BC000002400030014018010020B0
:100AE00030B583B0044601A8FFF70EFE054648BBAB
:100AF0001CB3FFF7EBFCC5B228461949FFF794FE7B
:100B0000641B02210A46174800F0AEF90028F8D00D
:100B100002210A46134800F0A1F9134800F096FAA2
:100B2000114800F087FA0F48022100F003FA0D483F
:100B3000032100F0FFF9002CDBD101A8FFF7E4FD51
:100B400003B030BD80B20199FFF76EFE641B022135
:100B50000A46044800F088F90028D9D1F7E700BF19
:100B6000B4000020000002400030014070B4544B3B
:100B700085B01C68534A01941268083B02921B68B6
:100B80001829039300F29880013900290C4640F39C
:100B90008E809DF804204C4B150902F00F025D5D1C
:100BA0009A5C02290570427040F381809DF805200F
:100BB00004294FEA121502F00F025D5D9A5C857000
:100BC000C27074DD9DF8062006294FEA121502F066
:100BD0000F025D5D9A5C0571427168DD9DF807202A
:100BE00008294FEA121502F00F025D5D9A5C8571CB
:100BF000C2715CDD9DF808200A294FEA121502F047
:100C00000F025D5D9A5C0572427250DD9DF809200D
:100C10000C294FEA121502F00F025D5D9A5C857295
:100C2000C27244DD9DF80A200E294FEA121502F027
:100C30000F025D5D9A5C0573427338DD9DF80B20F1
:100C400010294FEA121502F00F025D5D9A5C857360
:100C5000C2732CDD9DF80C2012294FEA121502F008
:100C60000F025D5D9A5C0574427420DD9DF80D20D5
:100C700014294FEA121502F00F025D5D9A5C85742B
:100C8000C27414DD9DF80E201D46160902F00F02F5
:100C90009E5D9B5C16290675437508DD9DF80F3037
:100CA0001A0903F00F03AA5CEB5C8275C37500237D
:100CB000035505B070BC70471824214669E700BF92
:100CC000F0F7FF1FECF7FF1F742500082DE9F04334
:100CD0009446022502680024D0F804804FF00F0EDD
:100CE00006E047EA06020134102C05F1040525D080
:100CF00043FA04F6F607F6D5A6000EFA06F701FA4F
:100D000006F9072C0CFA05F622EA070749EA060657
:100D1000E7D9A5F12206B6B2B71C0CFA07F90134DF
:100D200001FA06F70EFA06F649EA070728EA060866
:100D3000102C47EA080805F10405D9D10260C0F873
:100D40000480BDE8F08300BF044AC1F314011368B6
:100D500000F0E0600B43184310607047040001404E
:100D60002D4B19461A6842F001021A600B682A4A94
:100D70009807FBD51146294870B5036823F0030393
:100D80000360136843F4803313600B68224D9A03A9
:100D9000FBD5224C0220236823F0030343F0010318
:100DA0002360236823F0F0032360236843F4404367
:100DB0002360236823F4E06343F4806323602368A3
:100DC00023F46053236000F07FF92A46236823F45C
:100DD000701343F4E0132360236843F480332360EB
:100DE000236823F4003323602B6843F080732B6067
:100DF00013689B01FCD50949094A0B68094E23F089
:100E00000303094D09480A4C43F002030B603260AA
:100E10002A60046070BD00BF001002400410024050
:100E200000A24A040C000020140000201000002042
:100E300000512502013910B48C002144002300EB3D
:100E400081018B60CB600B614B6142680F23A34033
:100E5000134343605DF8044B704700BF01398900BC
:100E60008A404260704700BF0139036889008A40A8
:100E70001A4214BF01200020704700BF013901EB66
:100E8000810189000830435823F4405343504358AC
:100E90001A434250704700BF013901EB81018900BC
:100EA0000830435823F44063435043581A43425098
:100EB000704700BF013901EB8101890008304358B8
:100EC00023F44073435043581A434250704700BFC5
:100ED000013901EB810189000830435843F0800358
:100EE00043507047013901EB8101890008304358B4
:100EF00023F0800343507047013901EB81018900E1
:100F00000830435823F0100343507047013901EB78
:100F1000810189000830435843F010034350704763
:100F2000013901EB810189000830435843F0010386
:100F300043507047013901EB810189000830435863
:100F400023F0010343507047013901EB810100EBAD
:100F500081008368DB0758BF02617047013901EBEC
:100F6000810100EB81008368DB0758BF4261704755
:100F7000013901EB810189000C304250704700BFFC
:100F80000161704709040161704700BF0B4B984233
:100F900010D003F57443984208D0A3F578439842E3
:100FA00000D0704740F20E2000F07CB84FF4C670BD
:100FB00000F078B840F20F2000F074B8003C004018
:100FC000036843F040030360704700BF036823F4E5
:100FD00000530360704700BF036823F4806303601D
:100FE000704700BF036843F400730360436823F055
:100FF00004034360704700BF036843F480730360D9
:10100000704700BF436823F080034360704700BF10
:10101000436823F040034360704700BF436823F0F8
:1010200020034360704700BF436843F002034360FE
:10103000704700BF436823F002034360704700BF5E
:10104000436843F001034360704700BF436823F0E7
:1010500001034360704700BF30B40546039C02980B
:1010600044F00404204318432C6802436B6804F4E2
:101070004154114341EA040243F004036B60002031
:101080002A6030BC704700BF430903F1804303F579
:101090000433196800F01F00012282400A431A60DD
:1010A000704700BF430903F1804303F50433196817
:1010B00000F01F000122824011431960196821EAE3
:1010C00002021A60704700BF034A136823F0070347
:1010D00018431060704700BF002002402DE9F04720
:1010E00080460068894692461F46BDF828608047C2
:1010F0008760089F0D490E4A0E4BC760099F002567
:10110000C0F80090C0F8DC80C0F804A007618682B7
:101110000167C2668366C0F8C850C0F8CC50C0F8FA
:10112000D050C0F8D450BDE8F08700BFB11300081C
:1011300015140008B515000870B5044600250368AD
:101140008575C575D0F8DC2082B0DB79009596688E
:1011500029462A46B047D4F8DC3029465B68204649
:101160009847E3691BB102B0BDE87040184702B070
:1011700070BD00BFD0F8DC305B6A184710B4D0F8FF
:10118000DC40A468A4465DF8044B604710B4D0F876
:10119000DC40E469A4465DF8044B604710B4D0F825
:1011A000DC40246AA4465DF8044B6047D0F8DC308C
:1011B0001B691847D0F8DC309B691847F0B5036904
:1011C000D0F848C083638B79CA7983B043EA02239D
:1011D00004460D4600F13806838700F13C07BCF158
:1011E000000F33D090F84DE00B7890F84C200EEAC9
:1011F00003039A4200F08C80D4F850C0BCF1000F79
:1012000024D094F855102B7894F854200B409A422F
:1012100000F08980D4F858C0BCF1000F16D094F8C3
:101220005D102B7894F85C200B409A4200F0888087
:10123000D4F860C0BCF1000F08D094F865102B788A
:1012400094F864200B409A4200F0878032463B4677
:101250002046294600F068FC0646002E42D0E98868
:1012600000294BD0A38F20689942C57919D8002254
:1012700084F84420C279934220D913462046A26BB9
:101280000021FFF783FF2168022384F82C30CA79FC
:10129000A06BA38F0244A263CA799B1AA38703B0F1
:1012A000F0BD43B393FBF5F205FB1232B2FA82F2C2
:1012B000520984F84420C2799342DED8A26B2046BA
:1012C0000021FFF763FF94F8442000239A4214BFE3
:1012D0000222032284F8443084F82C20A387A363DD
:1012E00003B0F0BD204631460122FFF75FFF84F8CE
:1012F0002C6003B0F0BD84F84430DFE70B46204695
:101300000A46FFF743FF042384F82C3003B0F0BDF6
:1013100000F14003009332463B46E04701283FF688
:101320006BAF064699E704F1400300932046294637
:1013300032463B46E04701283FF66CAF06468CE755
:1013400004F1400300932046294632463B46E047DD
:1013500001283FF66DAF06467FE704F14003009396
:101360002046294632463B46E04701283FF66EAF0D
:10137000064672E710B4846C5CB1046DA4B1846D50
:1013800034B1046E94B14FF0FF305DF8044B7047F8
:10139000022400EBC40080F84C1080F84D208364D8
:1013A0005DF8044B002070470124F2E70324F0E7C6
:1013B00070B5002500F13006324605642946082341
:1013C0000446FFF7EBFE08281AD1E38E93B194F997
:1013D0003020002A0EDBA28A9A4211D321692268AA
:1013E000A587A163D2799A4234BF0523062384F8E6
:1013F0002C3070BD20463146BDE87040FFF7DEBEA0
:10140000204600210122FFF7D1FE002384F82C3072
:1014100070BD00BF2DE9F04190F82C3082B0062B52
:10142000044641D0072B2CD0052B09D000210122E6
:10143000FFF7BCFE002384F82C3002B0BDE8F08139
:101440000368828FC58EDB79AD1A9D42A8BF1D4609
:10145000836BADB21A4400212B46FFF79FFE8542F5
:1014600079D1A38F22681D44ADB2A587E38ED279CE
:101470005D1B9542E1DC062384F82C3002B0BDE808
:10148000F08100210A460B46FFF788FE236C0022FC
:1014900084F82C201BB1204604F13001984700232A
:1014A000236402B0BDE8F0810368828FC58EDB79CA
:1014B000AD1A9D42A8BF1D46836BADB21A440021F0
:1014C0002B46FFF76BFE854245D1A38FA76C1D44C9
:1014D000A58704F1300804F1380604F13C054FB348
:1014E00094F84D1094F8303094F84C200B409A4208
:1014F00054D0276DF7B194F8551094F8303094F823
:1015000054200B409A4228D0A76D9FB194F85D10EB
:1015100094F8303094F85C200B409A4228D0276E23
:1015200047B194F8651094F8303094F864200B407B
:101530009A4228D0414632462B46204600F0F4FA23
:1015400048B100210B460A462046FFF71FFE042340
:1015500084F82C3071E7204668E704F140030093DB
:101560002046414632462B46B8470128CCD8E7E70B
:1015700004F1400300932046414632462B46B847CB
:101580000128CCD8DCE704F1400300932046414613
:1015900032462B46B8470128CCD8D1E704F14003A6
:1015A00000932046414632462B46B8470128A0D832
:1015B000C6E700BF38B590F82C500446032D37D04D
:1015C000042D20D0022D07D000210122FFF7EEFDCF
:1015D000002384F82C3038BD0268838FD2799A4278
:1015E0002AD3826B0021FFF7D1FD94F84420002319
:1015F0009A4214BF0225032584F8443084F82C5005
:10160000A387A36338BD036C13B100F13001984781
:1016100094F83030002BDBD194F83130052BD7D142
:10162000D4F8DC30618E5B68C9B220469847CFE7BA
:10163000072380F82C3038BD13460021826BFFF75A
:10164000A5FD216884F82C50CA79A06BA38F0244B1
:10165000A263CA799B1AA38738BD00BFF8B54E882C
:1016600096B103685D7C6DB147687B79B34243D026
:101670003A46002303E0947C0D32A64221D0013388
:101680009D42F8D10020F8BDC6750446D0F8DC3084
:101690000F46DB689847D4F8C83083B10023A364B1
:1016A0002365A365236604F1C40504F1D40655F847
:1016B000043F13B1204679889847B542F7D10120FD
:1016C000F8BD5A1CD2B2C275002ADED002EB42032A
:1016D00002EB83020D3ABB181D79002DD5D00022F4
:1016E0001746D3F809401601345901320CB127705E
:1016F0001D799542F5D8C8E70123C3750022EAE7B2
:1017000019881268012984BF01211980C37D4168AD
:1017100003EB430003EB80030B4413F8083C012068
:101720001370704730B4C47D406804EB440504EB8B
:1017300085040D3C044420798D8885420DD201201A
:1017400018808B88D4F809101B015B58126803B10C
:101750001B781370012030BC7047002030BC7047EC
:1017600019880120022984BF0221198011680023F1
:101770000B7012685370704719880120022984BFCA
:1017800002211980116800230B7012685370704792
:1017900038B514461D88022D84BF02221A8089881C
:1017A0002568C9B2FFF706FD003018BF0120287078
:1017B000236800225A70012038BD00BF08B589880F
:1017C0000122C9B2FFF7F2FC012008BD08B58988E3
:1017D0000022C9B2FFF7EAFC012008BD0B786BB903
:1017E00010B54C887F2C07D8D0F8DC30847593F87E
:1017F00030202AB9012010BD184610BD00207047C6
:1018000049885B68C9B29847012010BD70B5C27D98
:10181000446802EB420502EB85020D3A2244157939
:101820008C88A54218D9D2F80920240115192E79DF
:101830004D88AE4210D9125962B115701C46D0F8CD
:10184000D8300A4613B189885288984700232380EC
:10185000012070BD002DF1D0002070BD2DE9F04FAA
:101860004C880646200A89B0022817460693E4B23F
:1018700047D0032812D0012803D0002009B0BDE8CA
:10188000F08F336806990A883B6033681B7893426F
:1018900028BF13460B8009B0BDE8F08F3569002CD6
:1018A00000F01581B068013C0028E7D0F3689C4245
:1018B000E3DA40F209438A889A42DED150F82400E4
:1018C00000F0ACFD01304300DBB206992B700A88B2
:1018D000934228BF1346032B0B8040F20381B36869
:1018E000002153F82420013A12F8010F05EB4103BF
:1018F0005880069B01311B885B08013B8B42F3DC5F
:10190000F0E01A46336904EB440518463B607668FC
:1019100004EB850507931488735D0746A34228BF2F
:101920002346721990469A46039211461A4600F0D1
:10193000FFFC3B4698F80420CAEB0404A4B216F856
:1019400005905344002A00F0B8800022D8F809100E
:101950000592059A1201174604928A189568BDB13E
:101960002E781846A64228BF26462946324600F061
:10197000DFFC034603992A78D1F809109144A41B8F
:10198000B2443344A4B21FFA8AFA1FFA89F9CA1979
:101990001079002800F0888000210291D768029A0F
:1019A000184602EB4206C6EBC606BD5D07EB06080D
:1019B000A54228BF254641462A4600F0B9FC034609
:1019C000BA5DD8F80D10641BAA449144A4B21FFA62
:1019D0008AFA2B441FFA89F9A9B1D8F81150184690
:1019E000A542A8BF2546ADB22A4600F0A1FC034699
:1019F000D8F81120641BAA449144A4B21FFA8AFAB1
:101A00002B441FFA89F998F80420002A3FD00025BA
:101A1000D8F809C0C5EB051B1CF80B600CEB0B07D5
:101A2000A64228BF2646394632461846CDF804C09D
:101A300000F07EFC0346DDF804C0D7F807101CF860
:101A40000B20A41BB2449144A4B21FFA8AFA334477
:101A50001FFA89F9A9B1D7F80B601846A642A8BFAA
:101A60002646B6B2324600F063FC0346D7F80B2098
:101A7000A41BB2449144A4B21FFA8AFA33441FFA59
:101A800089F9013598F80420ADB2AA42C0D8039A6A
:101A9000029DD2F80910049A01358A181079ADB266
:101AA000A84202953FF67AAF0598039A0130127961
:101AB00080B2824205903FF64CAF079B0120A3F80D
:101AC0000290069BA3F800A009B0BDE8F08F0922A0
:101AD0000423AA70069AEB702B701388042B28BF7E
:101AE00004231380032301206B703D6009B0BDE81F
:101AF000F08F00BFD0F8C83063B1D0F8CC3073B1EC
:101B0000D0F8D0302BB1D0F8D43053B14FF0FF30F3
:101B100070470223323340F823100020704701231E
:101B2000F8E70323F6E700BFF0B50C780D4614F094
:101B3000600F1ED104F01F04012C1CD012D3022C04
:101B400017D11E464B788646012B174621D01ED34F
:101B5000032B0ED14B8863B9104C704629463A4688
:101B6000334610E04C78092C03D80D4D55F824402D
:101B70004CB90020F0BD4C780B2CFAD8094D55F823
:101B80002440002CF5D0A446BDE8F0406047064C48
:101B9000E3E74B88002BECD1044CDEE7BD170008CF
:101BA00088250008B025000891170008CD17000807
:101BB00038B540F29730FFF767FA064D064A074CF2
:101BC00000234FF41C41136005482B602360116013
:101BD00038BD00BF505C0040405C0040445C0040A9
:101BE000640100200132521093B25AB15A1E92B2CF
:101BF000013201EB420231F8023B0430914240F8DD
:101C0000043CF8D1704700BF70B402F001065208DE
:101C100012D00B46013A94B2013400EB440533F87C
:101C2000042B20F8022BA842F9D101EB84010EB15C
:101C30000B782B7070BC70470546F8E7FEE700BFD5
:101C4000704700BF234A244B9A420FD2D443104618
:101C50002344224D23F00303043329461D4451F845
:101C6000044BA94240F8044BF9D11A441C4B9A4248
:101C70000DD2D91C131DC91A21F0030104311144DE
:101C8000002000E004338B4210601A46FAD1154A56
:101C9000154C1368154D43F40073AC42136004D225
:101CA00054F8043B9847AC42FAD3114C114DAC4266
:101CB00004D254F8043B9847AC42FAD30E4D0F4C73
:101CC000FEF70AFBAC4204D254F8043B9847AC42FE
:101CD000FAD300BF00000020180000201C260008D6
:101CE0006002002014ED00E01C2600081C260008FD
:101CF0001C2600081C2600081C2600081C260008BC
:101D000043099B0003F1604300F01F00012203F52B
:101D1000614382401A607047024B41F080011960B4
:101D2000704700BF4C5C00402DE9F04101F07F0698
:101D3000B40004F1804404F5B8448E462168DFF80D
:101D400058C121F4E04182B021F07F0141EA06054B
:101D50000746DCF80410DCF80000EC46ADB2ACE855
:101D60000300256021680CEB420232F8082C21F4B4
:101D7000EC4121F07001114389B22EF07F02216005
:101D800002F0FF05089802B986BB424AF1001268CA
:101D9000B7F818E092B20A44520002F1804202F50C
:101DA000C042C2F800E020B106EB460207EB820217
:101DB000906648F6CF72D4F800C09E440CEA020246
:101DC000226022681FFA8EFE22F4E04222F04002D6
:101DD00092B282F0200242F4004242F0800222607D
:101DE000A7F818E02DB102B0BDE8F081B7F818E00F
:101DF000F100284ADFF8A4C012683E2B92B20A44D0
:101E00004FEA420294441D46CCF800E02FD9DA068E
:101E100018BFA3F120056FEA85556FEA55451D4AA5
:101E2000DFF87CC01268ADB292B20A44520094440A
:101E3000CCF8005020B106EB460607EB8606F066AC
:101E40004CF68F72216873440A402260226822F4A3
:101E5000804222F0700292B282F4405242F4004278
:101E600042F0800222603B8302B0BDE8F081DA07D5
:101E7000084A48BF5D1CD2F80080AA021FFA88F504
:101E8000DFF81CC02944490092B28C44CCF80020F1
:101E9000D0E700BF505C00401426000808600040F6
:101EA0000C60004048F28003F0B43E4D3E492A6881
:101EB0003E4C22F4E04222F040021A4392B22A60E1
:101EC0002A683B4F22F4804222F070021A4392B2F9
:101ED0002A600A68374E22F4E04222F040021A4398
:101EE00092B20A600A6822F4804222F070021A4319
:101EF00092B20A60226822F4E04222F040021A43C1
:101F000092B22260226822F4804222F070021A43C8
:101F100092B222603A68046822F4E04222F0400261
:101F20001A4392B23A603A6822F4804222F0700278
:101F30001A4392B23A60326822F4E04222F0400240
:101F40001A4392B23260326822F4804222F0700268
:101F50001A4392B232606A6922F4E04222F04002EF
:101F60001A4392B26A616A6922F4804222F07002D6
:101F70001A4392B26A614A6922F4E04222F04002B6
:101F80001A4392B24A614A6922F4804222F07002F6
:101F900013439BB24B61E37920335B000383F0BCB6
:101FA000704700BF045C0040085C00400C5C0040CF
:101FB000105C0040145C004021BB324B1B6823F4D2
:101FC000E04323F040039BB2002A50D083F010037B
:101FD00043F400432B4843F0800303607AB38B0043
:101FE00003F1804303F5B8431A6822F4804222F0DB
:101FF000700292B282F4805242F4004242F08002B7
:102000001A6070470B06E9D501F07F039B0003F1CE
:10201000804303F5B843196821F4E04121F0400101
:1020200089B23ABB48F6CF7081F0200141F40042FA
:1020300042F080021A601A681040186070474CF62F
:102040008F728B0003F1804303F5B84319680A408F
:102050001A601A6822F4804222F0700292B282F46E
:10206000405242F4004242F080021A60704783F00E
:102070002003ADE781F0100141F4004242F08002FC
:102080001A607047005C00400B060DD4890001F116
:10209000804101F5B841086800F44050A0F5805037
:1020A000B0FA80F04009704701F07F01890001F12A
:1020B000804101F5B841086800F03000A0F110003F
:1020C000B0FA80F0400970470B061CD40E4B5A54EE
:1020D000890001F1804101F5B8410B6823F4804388
:1020E00023F070039BB23AB183F4005343F40043EE
:1020F00043F080030B60704783F4405343F4004384
:1021000043F080030B6070475C0100202DE9F04133
:1021100001F07F07BC0004F1804404F5B844206856
:1021200000F03005302D2FD01E46DFF868801146B4
:10213000D8F80050FF00AAB23A44520002F180429F
:1021400002F5C04210681A4680B2400000F180409B
:1021500000F5C040FFF746FDD8F800300C4A9BB2AE
:102160003B445B001A4416602168304621F4E0418C
:1021700021F0400189B281F0300141F4004141F089
:1021800080012160BDE8F0810020BDE8F08100BF42
:1021900004600040505C0040F8B58C0004F18044BD
:1021A00004F5B8440E46216801F44051B1F5405F92
:1021B00043D01D462248F7000168224B89B23944BA
:1021C00049000B441968C1F30901A94208DA036800
:1021D0001C499BB23B445B0019440D68C5F30905DB
:1021E000174B19491B6810469BB23B445B001944CE
:1021F00009682A4689B2490001F1804101F5C041D0
:10220000FFF702FD40F60F732168104A0B4043F0C0
:1022100080032360935D73B92368284623F48043C9
:1022200023F070039BB283F4405343F4004343F024
:1022300080032360F8BD2846F8BD0020F8BD00BF2C
:10224000505C00400C600040086000405C010020D1
:10225000354B70B5196804468DB26E0541D408043B
:1022600024D4290506D54FF2FF712F4A236A116045
:1022700003B19847EA0406D54EF6FF712A4A636A0D
:10228000116003B19847AB0507D54FF6FF51264AB9
:10229000A36A1160002B39D09847A36A002B35D070
:1022A000224A136843F40073136070BD15F01002E6
:1022B00001F00F011ED140F60F708B0003F1804337
:1022C00003F5B8431E68304040F40040186001EB4D
:1022D000410002441A3254F82220EAB120469047C5
:1022E000BFE74FF6FF31BDE870404022196002831E
:1022F000FEF722BF8B0003F1804303F5B8431A6851
:1023000012F4006F14BF02220122E0E7074A1368AB
:1023100023F40073136070BD40F60F7219680A4011
:1023200042F080021A609CE7445C0040405C004040
:10233000844641EA000313F0030349D1403A23D312
:102340000B6803604B6843608B688360CB68C36035
:102350000B6903614B6943618B698361CB69C3611D
:102360000B6A03624B6A43628B6A8362CB6AC36205
:102370000B6B03634B6B43638B6B8363CB6BC363ED
:1023800040304031403ADBD230320BD30B6803602F
:102390004B6843608B688360CB68C360103010313A
:1023A000103AF3D20C3205D351F8043B40F8043B09
:1023B000043AF9D2043208D0D2071CBF11F8013B0D
:1023C00000F8013B01D30B8803806046704700BFD3
:1023D000082A13D38B07B1D010F00303AED0C3F19A
:1023E0000403D21ADB071CBF11F8013B00F8013BC4
:1023F000A4D331F8023B20F8023B9FE7043AD9D33B
:10240000013A11F8013B00F8013BF9D20B78037057
:102410004B7843708B7883706046704720F00301DF
:1024200010F00300C0F1000051F8043B00F1040C6F
:102430004FEACC0C6FF000021CBF22FA0CF21343DF
:102440004FF0010C4CEA0C2C4CEA0C4CA3EB0C02A8
:1024500022EA030212EACC1204BF51F8043B043012
:10246000F4D0C2F1000102EA0102B2FA82F2C2F132
:102470001F0200EBD200704773746D33322D7673F8
:10248000657270726F670000120100020200004066
:1024900083044057090001020301000007050102FF
:1024A000400001000000000000000007058202401B
:1024B0000001000000000000000000000705830389
:1024C0001000FF00000000000000000009040100EF
:1024D000020A0000009C2400080000000000000028
:1024E00000000000090200000201008032F4240014
:1024F00008000000000000000100000000000000D3
:102500001425000800000000010000000000000089
:10251000CC240008090400000102020100BC2400D0
:1025200008602500081300000000000064776F7247
:1025300064313531312E696E666F000053544D336E
:1025400032207669727475616C2073657270726F77
:102550006720666F7220666C617368726F6D000031
:1025600005240010010524010001042402000524B3
:1025700006000100303132333435363738394142C4
:1025800043444546000000006117000800000000B9
:10259000000000000000000000000000DD1700083F
:1025A0005D18000800000000011700085D16000813
:1025B0007917000800000000000000000000000083
:1025C000000000000000000000000000000000000B
:1025D0000000000000000000251700080D1800088A
:1025E000B11B0008191D0008291D0008A51E0008C0
:1025F000B91F0008C9200008892000080D21000823
:10260000992100085122000800000000000000008D
:0C261000000000000002000400000006B2
:10261C002C2500083C250008F800002000127A0048
:08262C0000127A0000127A008E
:0400000508001C458E
:00000001FF
